:020000040800F2
:1000000080040020CD000008C70B0008C50B0008C5
:1000100000000000000000000000000000000000E0
:10002000000000000000000000000000CB0B0008F2
:100030000000000000000000C90B0008CD0B000804
:10004000DF00000800000000DF000008DF000008FB
:10005000DF000008DF000008DF000008DF00000804
:1000600000000000DF000008DF000008DF000008DB
:10007000DF000008DF000008DF00000800000000CB
:10008000DF000008DF000008DF000008DF000008D4
:10009000DF000008DF000008DF000008DF000008C4
:1000A000DF000008DF000008DF000008DF000008B4
:1000B000DF000008DF0000080348854600F074F9FF
:1000C000004800479D110008800400200448804734
:1000D00004480047FEE7FEE7FEE7FEE7FEE7FEE72F
:1000E000490C0008B900000830B50B460146002055
:1000F0002022012409E00D46D5409D4205D31D462E
:100100009540491B2546954040191546521E002D25
:10011000F1DC30BDD2B201E00270401C491EFBD2BE
:1001200070470022F6E710B513460A460446194602
:10013000FFF7F0FF204610BDF8B502464A40D40F45
:1001400042004B0052085B089A4202D2024608461F
:1001500011464A0023D0C30D4A00DDB2120EAD1A7B
:10016000202D35DA49020126490AF6058A19002CA4
:1001700000D0524220214F1B1146B9402A4110188D
:10018000C20D9A4221D0002C17D0012D08DCDA05CF
:10019000801AD20F8019D207DBB200F0CBF8F8BD7D
:1001A000DA05801A012340001B06C01880185A4245
:1001B0008018CA0F1043490007E04908C2071143DD
:1001C000DA05801A80194008801800F0ABF8F8BDF5
:1001D00061000122511A001BF7E70122D2075140AA
:1001E000AAE70122D2075040A6E7024670B54A406E
:1001F000D30FDB0740002DD04A002AD0010E140E89
:10020000000212020919400A520A8418E501044644
:100210005443000A120A2E045043A4194219200C18
:10022000C543AA18120C0125AD03521C5219120421
:100230007F39240400D0521C104301D44000491ED1
:10024000C2B20C06C0092018401C4008802A02D007
:1002500003E0002070BD40084000002900DA0020C3
:10026000184370BD70B502464A40D50F40004A00A1
:10027000ED0740085208002814D0002A12D0C40DFF
:10028000D30D41020120C0055202490A520AE41A64
:10029000091812187D34914201D3641C00E0490012
:1002A000002C01DA002070BD0023914201D3891A8D
:1002B0000343400849000028F7D100290AD09142A1
:1002C00002D10121C90705E0914201D2012101E0DB
:1002D0000121C943E005C018401900F023F870BDA2
:1002E000420005D04200120E52428A4201DB002039
:1002F0007047C90508187047C217C10F504010B5A4
:100300004018CA079623002100F014F810BD000021
:100310000122D207002800DB101A002900DB511A45
:1003200081427047002904DA401C490001D140088D
:100330004000704770B40024050C05D1102400045F
:1003400002D1002921D01124050E01D10002083468
:10035000050F01D10001241D850F01D18000A41CCF
:10036000002801DB4000641C002908D020252E1B3A
:100370000D46F540A14000D0012129430843010664
:100380001B1B000ADB1D02D5002070BC7047DB057B
:10039000181880180029F8DA401C4900F5D170BC03
:1003A0004008400070470000064C0125064E05E05D
:1003B000E36807CC2B430C3C98471034B442F7D386
:1003C000FFF77EFE00130008201300080148806834
:1003D00070470000000000200248816802788918F8
:1003E000816070470000002010B5084800240168B3
:1003F000821511430160204600F00AF8002801D060
:10040000012401E000F028F8204610BD0020024041
:1004100070B50F4E002431780546002915D07D2097
:10042000C000FFF761FE01460A480068FFF75CFE66
:1004300000F042FB002808D1042D06D200222946F4
:10044000401E00F023F8756000E00124204670BDD6
:10045000000000200C00002008B50B4801680122B4
:100460001143016000681040009007484038C26B9B
:1004700001040A43C263C06B08400090032040029D
:1004800000F010FB08BD00004010024010B500F065
:1004900037FC10BD10B50F4C216803225202914366
:1004A00001432160C11FFF39FA390ED10A480621E4
:1004B000006848430949FFF717FE401C02E0002886
:1004C00005D0401E61694905F9D4002010BD032004
:1004D00010BD0000007000400C00002040420F00E2
:1004E000F8B50F46060043D04D4D28684007400F31
:1004F000B84213D22868C008C00038432860FFF70C
:1005000065FF044605E0FFF761FF011B4548814296
:1005100061D828684007400FB842F4D13068424C97
:1005200081070DD5400704D5A068072109030843BA
:10053000A060A0680F2109028843B1680843A06049
:100540003078C00732D0706801280AD002280BD05A
:1005500000280FD03449403103280ED0C9698907DB
:1005600004E02168890301E021688901002906DB94
:100570000120F8BD21684905F8E7096AEFE7A1689D
:10058000C908C9000143A160FFF720FF009006E001
:10059000FFF71CFF0099411A224881421BD8A0682E
:1005A000382108407168C9008842F1D128684007A5
:1005B000400FB84217D91A480168C908C900394321
:1005C0000160FFF703FF054607E0FFF7FFFE411B51
:1005D0001448814201D90320F8BD11480068400742
:1005E000400FB842F1D13078400706D5A068072106
:1005F00009038843F1680843A06000F01DF8A16872
:100600003C2289091140094A515CC906C90EC840FB
:100610000749086007480068FFF7FAFEF8BD0000C8
:1006200000200240881300000010024080120008E1
:100630000C0000200400002010B5204CA068204AC7
:100640008006400F16D0A0688006410F5010012987
:100650000FD0A1688906490F022912D0A068800630
:10066000400F042823D0A0688006400F032821D023
:10067000002010BD206801218004400F81401046F9
:1006800012E0E1688B07E1689B0F4906490F491C9E
:10069000032B00D01046FFF727FDE1684904490EFF
:1006A0004843E168490F491CFFF71EFD10BD0120BA
:1006B000C00310BD7D20000210BD000000100240EC
:1006C0000024F400F8B504007ED020783827C00755
:1006D000EB4D002846D0A868E96838408907890FA3
:1006E000102802D008280BD001E0032908D00120EF
:1006F0006268000482420AD129680143296015E03A
:10070000286880032ED560680028DDD02AE0052304
:1007100001211B0489049A422A6802D10A432A60F3
:10072000EAE782432A6028688843286060680028D6
:100730000CD0FFF74BFE064604E0FFF747FE801B98
:10074000642873D828688003F7D50BE0FFF73EFED6
:10075000064604E0FFF73AFE801B6428F1D82868BB
:100760008003F7D42078800769D5A868E968384005
:100770008A070721920FC902102802D0002813D03F
:1007800001E0022A10D0E068002846D0286888439B
:100790002169084328602868FF2101310843286047
:1007A000FFF714FE06462CE02A68520502D5E268DF
:1007B000002A89D06A687F231B029A4363691B025F
:1007C0001A436A60002800E08DE00ED12868884353
:1007D000216908432860286801218004400F814076
:1007E000A848FFF781FCA8490860A8480068FFF7FF
:1007F0000FFE002877D122E0FFF7E8FD801B0228DA
:100800009FD828684005F7D568687F21090288438A
:10081000616909020843686011E02968FF2001301E
:1008200081432960FFF7D2FD064605E098E0FFF717
:10083000CDFD801B022884D828684005F7D4207895
:10084000934E00072ED5A8688006400F03280AD0D3
:10085000A0690028306A16D0012108433062FFF7F2
:10086000B5FD07460BE0306A80071BD5A06900285C
:100870009FD017E0FFF7AAFDC01B022870D8306A8E
:100880008007F7D50EE0400840003062FFF79EFD7C
:10089000074604E0FFF79AFDC01B022860D8306AC3
:1008A0008007F7D4207840076CD5A8680027800619
:1008B000400F042818D0E86BC00008D4E96B012071
:1008C00000070143E963E96B01400127009171488A
:1008D0000168C90519D40168821511430160FFF749
:1008E00075FD00900DE083E0F06980074AD5A068AF
:1008F00000287DD046E0FFF769FD0099401A0228E4
:100900002ED864480068C005F5D5A168012910D02B
:1009100004200529F16911D049084900F161F16904
:100920008143F161A068002816D0FFF74FFD0090C9
:100930000EE0F06901210843F061F3E70143F16142
:10094000F7E7FFF743FD0099411A534881426DD8FC
:10095000F0698007F5D50EE0FFF738FD009007E05D
:1009600064E0FFF733FD0099411A4B4881425DD89E
:10097000F0698007F5D4002F04D0E96B012000074F
:100980008143E963E069002877D0A9688906490FA7
:10099000022951D001263606022828680DD0B0431E
:1009A0002860E86880088000E860E8683B49084003
:1009B000E860FFF70BFD04463AE0B0432860FFF71C
:1009C00005FD074604E0FFF701FDC01B02282DD8F6
:1009D00028688001F7D4616A206AA26A0843E16A44
:1009E000120211430843216B0843E9682C4A00E0D6
:1009F00041E011400843E860286830432860E86817
:100A0000012109070843E860FFF7E0FC044604E021
:100A1000FFF7DCFC001B022808D828688001F7D506
:100A20002BE0FFF7D3FC001B022801D90320F8BDFF
:100A300028688001F5D420E00128F8D0E868226A0F
:100A40008107890F914216D17021626A014091425B
:100A500011D17F21A26A09020140120291420AD1FA
:100A60001F214904E26A0140914204D1400F216BE9
:100A70004007884201D00120F8BD0020F8BD0000E9
:100A8000001002400024F4000C00002004000020AC
:100A9000401002400070004088130000FFFFFEEF8E
:100AA0008C80C11F03490A6803235B029A430243F7
:100AB0000A60704700000140094910B5401E884295
:100AC00001D9012010BD074C60610321081F00F00F
:100AD00017F90020A06107202061002010BD000050
:100AE000FFFFFF0000E000E0F0B5034620331A7F6F
:100AF000012A27D001221A7702225A7704686268F5
:100B0000A568114FBC4205D116460F221205964327
:100B10004A6832437026B2430E6816436660006826
:100B2000B84205D0094A904202D0094A904204D105
:100B300080228968954329438160012058770020ED
:100B40001877F0BD0220F0BD002C014000040040E9
:100B50000040014070B5040005D025462035687F6F
:100B6000002802D006E0012070BD00202877204632
:100B700000F016F802206877211D206800F06CF85C
:100B8000012240342272AA77EA7722706270A27042
:100B9000E27022716271A271E2716A77002070BD09
:100BA00008B500680549884207D10548C26B102185
:100BB0000A43C263C06B0840009008BD00100040AB
:100BC00000100240FEE7FEE77047704710B5FFF7E0
:100BD00003FC10BD30B591B034216846FFF7A1FA8F
:100BE000002501200D950E950F9540021095FFF7F9
:100BF00051FC0224E001039000944020059008205D
:100C00000A9080030B900794000304950C900995BB
:100C100008946846FFF756FD002801D072B6FEE73B
:100C200007200D90052040020F9007200003109030
:100C30000E9400210DA8FFF753FC002801D072B6D6
:100C4000FEE711B030BD000001200249C0068860F7
:100C50007047000000ED00E0F0B502681A4B1B4C35
:100C6000984201D0A04203D17025AA434D682A437F
:100C7000174D184E184F98420AD0A04208D0174C72
:100C8000A04205D0A84203D0B04201D0B84205D15D
:100C90001446032212029443CA6822438024A243CA
:100CA0004C69224302608A68C2620A688262984282
:100CB00005D0A84203D0B04201D0B84201D10969A1
:100CC000016301214161F0BD002C0140000400409E
:100CD0000040014000440140004801400020004025
:100CE0000FB410B503A9044B044A029800F052F85F
:100CF00010BC08BC04B018470D10000810000020FC
:100D00008307FF22DB0E9A408907090E99400028CD
:100D100008DB830809489B001B18186890430843A8
:100D2000186070470007000F0838830804489B00CC
:100D30001B18D86990430843D861704700E400E06D
:100D400000ED00E010B57F200021C005FFF78AFA12
:100D500010BD10B50121FFF7C3FA10BD10B5002179
:100D60000846FFF77FFA10BD02E008C8121F08C14D
:100D7000002AFAD170477047002001E001C1121F1C
:100D8000002AFBD17047000001490860704700004D
:100D900014000020FFB58DB00446002506E025288C
:100DA0000AD0109A0F999047641C6D1C2078002877
:100DB000F5D1284611B0F0BD00270121484A00971F
:100DC00000E00743641C23780846203B984010420B
:100DD000F7D120782E2817D1042007436078641CAF
:100DE0002A280CD10E98641C02C800910E900BE0CA
:100DF00000990A22514330394018641C0090207831
:100E0000014630390929F3D920780028D1D0642847
:100E100008D0692806D075281ED0109A0F999047DF
:100E20006D1C5BE00A200E99019001C90E9100280B
:100E300002DA40422D2102E0390504D52B216A4611
:100E40001172012103E0F90704D02021F7E70BAE6E
:100E50000B910DE00021FAE70A200E99019001C9DB
:100E60000E91F7E70199FFF73FF93031761E3170A7
:100E70000028F7D103A8801B20300190780701D506
:100E8000009801E0012000900199884201DD401A9C
:100E900000E000200027009006E002A8109AC05D44
:100EA0000F9990476D1C7F1C0B988742F5DB04E07F
:100EB000109A30200F9990476D1C0099481E0090A1
:100EC0000029F5DC05E03078109A761C0F999047E0
:100ED0006D1C0199481E01900029F4DC641C65E733
:100EE00009280100F7B504468EB000690290A06899
:100EF0000990E768109807900020069060680699AE
:100F000088424CD900200F9D00900646019022E0B7
:100F100061693868FFF710F925490390FFF765F913
:100F200000F07EF80099FFF707F900900998016832
:100F30002868FFF752F90146FFF757F90399FFF7C1
:100F400091F90199FFF7F8F8019009982D1D001DFE
:100F5000761C3F1D09902068B042D9D8BF210906F0
:100F60000098FFF742F905460021C9430198FFF7B1
:100F7000B7F92946FFF735F9054602980299006846
:100F8000091D029100F04CF82946FFF7D5F80799A2
:100F900008600798001D07900698401CADE70146C1
:100FA0000AAB0BAA109800F005F80A9811B0F0BD32
:100FB000DB0FC940FFB540C881B000270446029D41
:100FC00009E001CC009001463046FFF7A1F902D2BA
:100FD0000298009E471B6D1EF3D10398066004988B
:100FE000076005B0F0BD00007D220748D200C26254
:100FF00001680123194301600A2102E0436A934218
:10100000FCD1491EFAD270470010004038B50446A2
:101010006846047069460320ABBE204638BD000018
:10102000F8B50121C9057F220026411A1206914216
:101030007BD20121C9044118CA15012341021B07B3
:10104000C9184D0F7F217F3A2B05C905B6185C18CA
:10105000D205871A3046284345D021463846FFF747
:101060006BF8009021463846FFF7B7F80099FFF774
:10107000F9F807460146FFF7B8F83E490090FFF738
:10108000B4F83D49FFF758F8044638460099FFF791
:10109000ACF82146FFF7A9F804463046FFF72CF9D3
:1010A00006463649FFF7A1F83549AD00794449595C
:1010B000FFF742F82146FFF73FF804460121384682
:1010C000FFF70EF92146FFF737F8044630462D4961
:1010D000FFF78BF82C4979444959FFF72DF8214641
:1010E000FFF72AF8F8BD3846FFF777F80546274995
:1010F000FFF77BF82649FFF71FF82946FFF775F839
:101100002449FFF719F82946FFF76FF82249FFF73E
:1011100013F8044629460846FFF767F82146FFF70B
:1011200064F801462846DBE7FFE7FF22410012068C
:10113000914202D9FFF70DFEF8BDFF22D205904281
:10114000FAD01402A04205D90120FFF71DFEFFF7D7
:1011500005FEF8BD410005D01626F6431721FFF71E
:10116000BFF866E70220FFF70FFEFFF7EBFD6040D8
:10117000F8BD000066F1CC3EAAAA2A3FF4FD05386E
:10118000300200000070313FE601000021ED423ED8
:101190000A1180BEC1ABAA3EFFFFFFBE88B0204847
:1011A00002210160032141601E4981601831C16044
:1011B000183101611C494161FFF716F9FFF70AFD7B
:1011C000002417481949009401944C38029412C025
:1011D00004601749046141600838FFF7BBFC002830
:1011E00001D072B6FEE70E48009469464C3802946E
:1011F000FFF77AFC002801D072B6FEE7FF24A405B1
:101200007F25ED0505AA03A9054804950394FFF77A
:1012100069FE014607A0FFF763FDFFF7E5FEF1E772
:101220006400002044120008DC27923100100040C6
:10123000FFFF0000436C617373203D2025640A0AA0
:1012400000000000CF98B13F974A613F6505D6BFC7
:10125000C5516F3FA68199BD149639C01B007B3FD5
:10126000F140973F4535883F5883803F4DC26A3FE4
:10127000211B693FABAAAA3EABAAAA3EABAAAA3ED3
:10128000000000000000000000000000000000005E
:10129000000000000000000000000000000000004E
:1012A0000100000002000000030000000400000034
:1012B0000600000007000000080000000900000010
:1012C000000000000030F13D0070643E0000A33ECD
:1012D0000090CF3E0090F83E00400F3F00E0203FDE
:1012E0000000000015B78337CDE37B380EE1C53829
:1012F00060F69138AF5F0F38E1BC3E3823F44739D0
:10130000201300080000002018000000680D0008ED
:10131000381300081800002068040000780D000849
:101320000100000004000000000000000024F400A0
:081330000000000000000000B5
:04000005080000B936
:00000001FF
